:020000040802F0
:1000000000000220815F0308455503084755030897
:100010005D55030873550308895503080000000067
:1000200000000000000000000000000031A50208F0
:100030009F55030800000000D1A5020835A602085C
:10004000D15F0308D15F0308D15F0308D15F0308C4
:10005000D15F0308D15F0308D15F0308D15F0308B4
:10006000D15F0308D15F0308D15F0308A1550308DE
:10007000D15F0308B1550308D15F0308D15F0308BE
:10008000D15F0308D15F0308D15F0308D15F030884
:10009000C1550308D1550308D15F0308D15F030898
:1000A000D15F0308D15F0308E1550308D15F03085E
:1000B000D15F0308D15F0308D15F0308D15F030854
:1000C000D15F0308D15F0308D15F0308D15F030844
:1000D000D15F0308D15F0308D15F0308D15F030834
:1000E000D15F0308D15F0308D15F0308D15F030824
:1000F000D15F0308F1550308D15F0308D15F0308FE
:10010000D15F0308D15F0308D15F0308D15F030803
:100110000156030811560308D15F0308215603084E
:10012000D15F0308D15F0308D15F0308D15F0308E3
:10013000D15F030831560308D15F0308D15F03087C
:10014000D15F0308D15F0308D15F0308415603085C
:10015000D15F0308D15F0308D15F0308D15F0308B3
:10016000D15F0308D15F0308D15F0308D15F0308A3
:10017000D15F0308D15F0308D15F030800000000CE
:08018000D15F0308D15F030801
:1001900010B5054C237833B9044B13B10448AFF3C1
:1001A00000800123237010BDA8240020000000005F
:1001B000FCE5030808B5034B1BB103490348AFF343
:1001C000008008BD00000000AC240020FCE503080E
:1001D00010F8012B11F8013B012A28BF9A42F7D0F1
:1001E000D01A70470000000000000000000000006E
:1001F00001F0FF01102A2BDB10F0070F08D010F8D8
:10020000013B013A8B422DD010F0070F42B3F6D1DB
:10021000F0B441EA012141EA014122F007047FF0F4
:1002200000070023F0E80256083C85EA010586EA4B
:10023000010685FA47F5A3FA87F586FA47F6A5FA87
:1002400087F68EB9EED1F0BC01F0FF0102F0070293
:1002500032B110F8013B013A83EA010313B1F8D13E
:100260000020704701387047002D06BF354603381F
:10027000073815F0010F07D1013015F4807F02BF58
:10028000013015F4C03F0130F0BC0138704700BFA9
:10029000034613F8012B002AFBD1181A01387047C6
:1002A00081F0004102E000BF83F0004330B54FEA27
:1002B00041044FEA430594EA050F08BF90EA020F94
:1002C0001FBF54EA000C55EA020C7FEA645C7FEA27
:1002D000655C00F0E2804FEA5454D4EB5555B8BF4A
:1002E0006D420CDD2C4480EA020281EA030382EABB
:1002F000000083EA010180EA020281EA0303362D4D
:1003000088BF30BD11F0004F4FEA01314FF4801C1F
:100310004CEA113102D0404261EB410113F0004F31
:100320004FEA03334CEA133302D0524263EB4303E8
:1003300094EA050F00F0A780A4F10104D5F1200E86
:100340000DDB02FA0EFC22FA05F2801841F10001E1
:1003500003FA0EF2801843FA05F359410EE0A5F1B5
:1003600020050EF1200E012A03FA0EFC28BF4CF0E6
:10037000020C43FA05F3C01851EBE37101F000459C
:1003800007D54FF0000EDCF1000C7EEB00006EEBA9
:100390000101B1F5801F1BD3B1F5001F0CD3490833
:1003A0005FEA30004FEA3C0C04F101044FEA44528A
:1003B00012F5800F80F09A80BCF1004F08BF5FEA11
:1003C000500C50F1000041EB045141EA050130BDF1
:1003D0005FEA4C0C404141EB0101013C28BFB1F503
:1003E000801FE9D291F0000F04BF01460020B1FA4E
:1003F00081F308BF2033A3F10B03B3F120020CDA21
:100400000C3208DD02F1140CC2F10C0201FA0CF0FE
:1004100021FA02F10CE002F11402D8BFC2F1200C63
:1004200001FA02F120FA0CFCDCBF41EA0C01904019
:10043000E41AA2BF01EB0451294330BD6FEA040462
:100440001F3C1CDA0C340EDC04F11404C4F120024D
:1004500020FA04F001FA02F340EA030021FA04F35F
:1004600045EA030130BDC4F10C04C4F1200220FAB6
:1004700002F001FA04F340EA0300294630BD21FAF4
:1004800004F0294630BD94F0000F83F4801306BFBA
:1004900081F480110134013D4EE77FEA645C18BFAE
:1004A0007FEA655C29D094EA050F08BF90EA020F45
:1004B00005D054EA000C04BF1946104630BD91EA3D
:1004C000030F1EBF0021002030BD5FEA545C05D140
:1004D0004000494128BF41F0004130BD14F580047F
:1004E0003CBF01F5801130BD01F0004545F0FE41F3
:1004F00041F470014FF0000030BD7FEA645C1ABF28
:10050000194610467FEA655C1CBF0B46024650EA5E
:10051000013406BF52EA033591EA030F41F400218A
:1005200030BD00BF90F0000F04BF0021704730B510
:100530004FF4806404F132044FF000054FF00001E5
:1005400050E700BF90F0000F04BF0021704730B5A6
:100550004FF4806404F1320410F0004548BF40427B
:100560004FF000013EE700BF42004FEAE2014FEAD0
:1005700031014FEA02701FBF12F07F4393F07F4FAB
:1005800081F06051704732F07F4208BF704793F0AE
:100590007F4F04BF41F40021704730B54FF46074C1
:1005A00001F0004521F000411CE700BF50EA0102C4
:1005B00008BF704730B54FF000050AE050EA01026D
:1005C00008BF704730B511F0004502D5404261EBDD
:1005D00041014FF4806404F132045FEA915C3FF41E
:1005E000D8AE4FF003025FEADC0C18BF03325FEABB
:1005F000DC0C18BF033202EBDC02C2F1200300FA6C
:1006000003FC20FA02F001FA03FE40EA0E0021FA90
:1006100002F11444BDE600BF70B54FF0FF0C4CF47E
:10062000E06C1CEA11541DBF1CEA135594EA0C0F30
:1006300095EA0C0F00F0DEF82C4481EA030621EA6B
:100640004C5123EA4C5350EA013518BF52EA0335A6
:1006500041F4801143F4801338D0A0FB02CE4FF058
:100660000005E1FB02E506F00042E0FB03E54FF088
:100670000006E1FB03569CF0000F18BF4EF0010E80
:10068000A4F1FF04B6F5007F64F5407404D25FEA7C
:100690004E0E6D4146EB060642EAC62141EA55512F
:1006A0004FEAC52040EA5E504FEACE2EB4F1FD0C71
:1006B00088BFBCF5E06F1ED8BEF1004F08BF5FEAEF
:1006C000500E50F1000041EB045170BD06F00046A1
:1006D00046EA010140EA020081EA0301B4EB5C044E
:1006E000C2BFD4EB0C0541EA045170BD41F4801146
:1006F0004FF0000E013C00F3AB8014F1360FDEBF6B
:10070000002001F0004170BDC4F10004203C35DA46
:100710000C341BDC04F11404C4F1200500FA05F3C9
:1007200020FA04F001FA05F240EA020001F000426A
:1007300021F0004110EBD37021FA04F642EB0601E0
:100740005EEA430E08BF20EAD37070BDC4F10C040A
:10075000C4F1200500FA04F320FA05F001FA04F2CE
:1007600040EA020001F0004110EBD37041F10001BA
:100770005EEA430E08BF20EAD37070BDC4F12005C5
:1007800000FA05F24EEA020E20FA04F301FA05F22D
:1007900043EA020321FA04F001F0004121FA04F2D5
:1007A00020EA020000EBD3705EEA430E08BF20EAA5
:1007B000D37070BD94F0000F0FD101F000464000DF
:1007C00041EB010111F4801F08BF013CF7D041EA61
:1007D000060195F0000F18BF704703F00046520065
:1007E00043EB030313F4801F08BF013DF7D043EA36
:1007F0000603704794EA0C0F0CEA135518BF95EAEC
:100800000C0F0CD050EA410618BF52EA4306D1D172
:1008100081EA030101F000414FF0000070BD50EA91
:10082000410606BF1046194652EA430619D094EA1B
:100830000C0F02D150EA013613D195EA0C0F05D105
:1008400052EA03361CBF104619460AD181EA030159
:1008500001F0004141F0FE4141F470014FF0000011
:1008600070BD41F0FE4141F4780170BD70B54FF0AC
:10087000FF0C4CF4E06C1CEA11541DBF1CEA13552C
:1008800094EA0C0F95EA0C0F00F0A7F8A4EB05040E
:1008900081EA030E52EA03354FEA013100F0888005
:1008A0004FEA03334FF0805545EA131343EA1263CE
:1008B0004FEA022245EA111545EA10654FEA002683
:1008C0000EF000419D4208BF964244F1FD0404F53C
:1008D000407402D25B084FEA3202B61A65EB030598
:1008E0005B084FEA32024FF480104FF4002CB6EB55
:1008F000020E75EB030E22BFB61A754640EA0C00D5
:100900005B084FEA3202B6EB020E75EB030E22BF14
:10091000B61A754640EA5C005B084FEA3202B6EB55
:10092000020E75EB030E22BFB61A754640EA9C0014
:100930005B084FEA3202B6EB020E75EB030E22BFE4
:10094000B61A754640EADC0055EA060E18D04FEAA2
:10095000051545EA16754FEA06164FEAC30343EA42
:1009600052734FEAC2025FEA1C1CC0D111F4801F0F
:100970000BD141EA00014FF000004FF0004CB6E708
:1009800011F4801F04BF01430020B4F1FD0C88BFA7
:10099000BCF5E06F3FF6AFAEB5EB030C04BFB6EBB2
:1009A000020C5FEA500C50F1000041EB045170BDA5
:1009B0000EF0004E4EEA113114EB5C04C2BFD4EBD2
:1009C0000C0541EA045170BD41F480114FF0000E56
:1009D000013C90E645EA060E8DE60CEA135594EAD2
:1009E0000C0F08BF95EA0C0F3FF43BAF94EA0C0FD5
:1009F0000AD150EA01347FF434AF95EA0C0F7FF44A
:100A000025AF104619462CE795EA0C0F06D152EA9D
:100A100003353FF4FDAE1046194622E750EA410681
:100A200018BF52EA43067FF4C5AE50EA41047FF492
:100A30000DAF52EA43057FF4EBAE12E74FF0FF3CF7
:100A400006E000BF4FF0010C02E000BF4FF0010CC8
:100A50004DF804CD4FEA410C7FEA6C5C4FEA430C41
:100A600018BF7FEA6C5C1BD001B050EA410C0CBF90
:100A700052EA430C91EA030F02BF90EA020F0020F2
:100A8000704710F1000F91EA030F58BF994208BF59
:100A900090422CBFD8176FEAE37040F00100704716
:100AA0004FEA410C7FEA6C5C02D150EA013C07D16D
:100AB0004FEA430C7FEA6C5CD6D152EA033CD3D0B8
:100AC0005DF8040B704700BF8446104662468C46B2
:100AD0001946634600E000BF01B5FFF7B7FF0028E5
:100AE00048BF10F1000F01BD4DF808EDFFF7F4FF0E
:100AF0000CBF012000205DF808FB00BF4DF808ED99
:100B0000FFF7EAFF34BF012000205DF808FB00BFBB
:100B10004DF808EDFFF7E0FF94BF012000205DF8DD
:100B200008FB00BF4DF808EDFFF7CEFF94BF012092
:100B300000205DF808FB00BF4DF808EDFFF7C4FF8B
:100B400034BF012000205DF808FB00BF4FEA410CD4
:100B50007FEA6C5C02D150EA013C0AD14FEA430CB7
:100B60007FEA6C5C02D152EA033C02D14FF00000F4
:100B700070474FF0010070474FEA410212F5001232
:100B800015D211D56FF47873B3EB625212D94FEAD4
:100B9000C12343F0004343EA505311F0004F23FABE
:100BA00002F018BF404270474FF00000704750EA13
:100BB000013005D111F0004008BF6FF000407047D0
:100BC0004FF00000704700BF4A0011D212F500122A
:100BD00011D20DD56FF47873B3EB62520ED44FEA95
:100BE000C12343F0004343EA505323FA02F0704715
:100BF0004FF00000704750EA013002D14FF0FF3053
:100C000070474FF00000704753B94AB9002908BF38
:100C100000281CBF4FF0FF314FF0FF3000F088B9C3
:100C2000ADF1080C6DE904CE00F006F8DDF804E043
:100C3000DDE9022304B070472DE9F047089D0F4617
:100C400004468C46002B48D18A42164661D9B2FA36
:100C500082F34BB1C3F1200201FA03FC20FA02F245
:100C60009E4042EA0C0C9C404FEA164EB7B2BCFBC9
:100C7000FEF1220C0EFB11CC42EA0C4201FB07F004
:100C8000904209D9B21801F1FF3C80F0EE80904209
:100C900040F2EB8002393244121AA4B2B2FBFEF0E9
:100CA0000EFB102244EA024400FB07F7A74209D9D1
:100CB000341900F1FF3280F0DA80A74240F2D78089
:100CC0003444023840EA0140E41B00211DB1DC40FD
:100CD0000023C5E90043BDE8F0878B4206D90DB17A
:100CE000C5E9000100210846BDE8F087B3FA83F1A9
:100CF000002948D1BB4202D3824200F20781841A04
:100D000067EB030201209446002DE4D0C5E9004CB6
:100D1000E1E7002A00F09280B2FA82F3002B40F063
:100D2000A8808A1A4FEA164E1FFA86FC0121200C71
:100D3000B2FBFEF70EFB172240EA02420CFB07F063
:100D4000904207D9B21807F1FF3802D2904200F260
:100D5000E2804746121AA4B2B2FBFEF00EFB10224C
:100D600044EA02440CFB00FCA44507D9341900F105
:100D7000FF3202D2A44500F2CB801046A4EB0C0453
:100D800040EA0740A2E7C1F120068B4022FA06FCA8
:100D90004CEA030C07FA01F420FA06F3F7404FEA95
:100DA0001C49234300FA01F81FFA8CFEB7FBF9F047
:100DB0001C0C09FB107744EA074400FB0EF7A7421E
:100DC00002FA01F20AD91CEB040400F1FF3A80F0A8
:100DD0009B80A74240F2988002386444E41B9FB293
:100DE000B4FBF9F309FB134447EA044403FB0EFE8A
:100DF000A64509D91CEB040403F1FF3780F082807B
:100E0000A6457FD9023B644443EA0040A4EB0E04AC
:100E1000A0FB02E7BC427346B94663D360D05DB124
:100E2000B8EB030264EB090404FA06F622FA01F3B4
:100E30001E43CC40C5E9006400214CE76208480825
:100E400042EAC1710B0C43EA00438AB242EA034210
:100E5000B3FBF6F1E407B4463746B6461F23B0FBB2
:100E6000F6F0D21B41EA004161E7614614E7104603
:100E700028E7C3F1200120FA01F29E4027FA01F190
:100E80009F403A434FEA164E1FFA86FCB1FBFEF72D
:100E90000EFB1710110C41EA004107FB0CF88845C6
:100EA00004FA03F43AD9711807F1FF3001D28845EA
:100EB0001FD8A1EB0801B1FBFEF808FB0CF70EFBF5
:100EC000181192B242EA0142BA422FD2B21808F186
:100ED000FF31C6D2BA42C4D2A8F102013244C0E7FF
:100EE000F0459CD2BEEB020367EB0C070138B94614
:100EF00095E7A6EB08084144B81EB1FBFEF808FBD5
:100F00000CF7DCE73B467FE7504667E70846FBE621
:100F10003444023832E7023F32441BE7A1EB0801B8
:100F20003846B1FBFEF808FB0CF7C8E7414698E7E6
:100F3000704700BF044BD3F8882042F47002C3F816
:100F40008820024A9A60704700ED00E00000020825
:100F500030B4036A026A22F00102026242688469C4
:100F600024F0730C0C6844EA0C0423F0020C8B6828
:100F700043EA0C03114DA84203D005F58065A84251
:100F800005D123F00803CD682B4323F004030B4D58
:100F9000A84203D005F58065A84207D122F440722B
:100FA0004D6945EA020C8A6942EA0C02426084619A
:100FB0004A684263036230BC704700BF00000140D2
:100FC00030B4036A026A22F4807202624268C46921
:100FD00024F0730C0C6844EA0C0523F400738C684D
:100FE00043EA0423114CA04203D004F58064A042DC
:100FF00006D123F40063CC6843EA042323F480631E
:101000000A4CA04203D004F58064A04207D122F428
:1010100040524C6942EA04128C6942EA041242606E
:10102000C5614A68C263036230BC7047000001407A
:1010300030B4036A026A22F4805202624468C269D0
:1010400022F4E6420D6842EA052223F400538D683B
:1010500043EA0533094DA84203D005F58065A8424F
:1010600004D124F480444D6944EA85144460C2618B
:101070004A680264036230BC704700BF0000014050
:1010800090F83D30012B37D1022380F83D300268C3
:10109000D36843F00103D3600368194A934220D018
:1010A000B3F1804F1DD0A2F57C42934219D002F5D6
:1010B0008062934215D002F58062934211D002F50E
:1010C000784293420DD002F57052934209D0A2F5B6
:1010D0009432934205D01A6842F001021A6000204F
:1010E00070479A6802F00702062A07D01A6842F091
:1010F00001021A60002070470120704700207047ED
:1011000000000140704770477047704770B5044653
:101110000368DE681D6915F0020F10D016F0020F8B
:101120000DD06FF002021A610123037703689B69F7
:1011300013F0030F5ED0FFF7E6FF0023237715F0CF
:10114000040F12D016F0040F0FD023686FF00402C2
:101150001A610223237723689B6913F4407F4FD0E1
:101160002046FFF7D0FF0023237715F0080F12D099
:1011700016F0080F0FD023686FF008021A610423DD
:1011800023772368DB6913F0030F40D02046FFF775
:10119000BAFF0023237715F0100F12D016F0100FAE
:1011A0000FD023686FF010021A6108232377236899
:1011B000DB6913F4407F31D02046FFF7A4FF002302
:1011C000237715F0010F02D016F0010F2DD115F085
:1011D000800F02D016F0800F2FD115F0400F02D0F3
:1011E00016F0400F31D115F0200F02D016F0200F6D
:1011F00033D170BDFFF786FF2046FFF785FF9CE7E0
:101200002046FFF77FFF2046FFF77EFFABE7204633
:10121000FFF778FF2046FFF777FFBAE72046FFF792
:1012200071FF2046FFF770FFC9E723686FF00102E6
:101230001A61204613F00CFCC9E723686FF08002A6
:101240001A61204600F0BFF9C7E723686FF040023B
:101250001A612046FFF759FFC5E723686FF02002A7
:101260001A61204600F0AEF9C3E700000368324A75
:10127000904212D0B0F1804F0FD0A2F57C42904244
:101280000BD002F58062904207D002F58062904256
:1012900003D002F57842904203D123F070034A68EC
:1012A0001343254A90422AD0B0F1804F27D0A2F5AF
:1012B0007C42904223D002F5806290421FD002F51A
:1012C000806290421BD002F57842904217D002F51E
:1012D0007052904213D002F5806290420FD002F516
:1012E000806290420BD0A2F59832904207D002F56E
:1012F0008062904203D002F58062904203D123F4D1
:101300004073CA68134323F080034A6913438A6811
:10131000C2620A688262084A904203D002F5806283
:10132000904201D10A690263026842F0040202603D
:1013300001224261036070470000014040B310B5D4
:10134000044690F83D30F3B1022384F83D30214645
:1013500051F8040BFFF78AFF012384F8463084F824
:101360003E3084F83F3084F8403084F8413084F8CF
:10137000423084F8433084F8443084F8453084F8AF
:101380003D30002010BD80F83C3014F0AFFBDBE7AF
:101390000120704740B310B5044690F83D30F3B1DA
:1013A000022384F83D30214651F8040BFFF75EFF1D
:1013B000012384F8463084F83E3084F83F3084F8C6
:1013C000403084F8413084F8423084F8433084F867
:1013D000443084F8453084F83D30002010BD80F85A
:1013E0003C3014F059FBDBE70120704730B4036A4E
:1013F000026A22F0100202624468826922F4E64224
:101400000D6842EA052223F020038D6843EA0513A4
:10141000114DA84203D005F58065A84206D123F0FE
:101420008003CD6843EA051323F040030A4DA84228
:1014300003D005F58065A84207D124F440644D69C6
:1014400044EA85048D6944EA8504446082614A68FF
:101450008263036230BC70470000014038B590F8E9
:101460003C30012B66D004460D46012380F83C3009
:101470000C2A5AD8DFE802F0075959591B59595913
:101480003059595944000068FFF762FD226893699A
:1014900043F0080393612268936923F00403936186
:1014A0002268936929690B43936100203EE000683C
:1014B000FFF79CFF2268936943F4006393612268FD
:1014C000936923F48063936122689369296943EAED
:1014D00001239361002029E00068FFF771FD226875
:1014E000D36943F00803D3612268D36923F004036E
:1014F000D3612268D36929690B43D361002015E0C9
:101500000068FFF795FD2268D36943F40063D36157
:101510002268D36923F48063D3612268D36929697F
:1015200043EA0123D361002000E00120002384F876
:101530003C3038BD0220FCE790F83C20012A3DD029
:1015400010B40346012280F83C20022280F83D209E
:1015500002685068946820F0700C086840EA0C003B
:1015600050601A68164882421AD0B2F1804F17D0E4
:10157000A0F57C40824213D000F5806082420FD0FB
:1015800000F5806082420BD000F57840824207D09F
:1015900000F57050824203D0A0F59430824204D10D
:1015A00024F08004496821439160012283F83D20A2
:1015B000002083F83C005DF8044B70470220704720
:1015C0000000014070477047002800F0E08170B5CE
:1015D00082B00446036813F0010F3BD09F4B9B6819
:1015E00003F00C03042B2CD09C4B9B6803F00C03E2
:1015F000082B21D06368B3F5803F4FD0B3F5A02FFF
:1016000052D0964B1A6822F480321A601A6822F47B
:1016100080221A606368002B50D001F083F80546E1
:101620008E4B1B6813F4003F14D101F07BF8401B74
:101630006428F5D90320B1E1884B5B6813F4800F6F
:10164000D8D0864B1B6813F4003F03D06368002B8F
:1016500000F09F81236813F0020F54D07F4B9B68EA
:1016600013F00C0F3ED07D4B9B6803F00C03082B4E
:1016700033D0E368002B68D0794B01221A6001F067
:1016800051F80546754B1B6813F0020F54D101F059
:1016900049F8401B0228F5D903207FE16F4A1368FF
:1016A00043F480331360B5E76C4B1A6842F4802230
:1016B0001A601A6842F480321A60ABE701F032F81F
:1016C0000546664B1B6813F4003FC3D001F02AF8AF
:1016D000401B6428F5D9032060E1604B5B6813F47C
:1016E000800FC6D15D4B1B6813F0020F03D0E36877
:1016F000012B40F05081594A136823F0F803216907
:1017000043EAC1031360236813F0080F42D06369F2
:101710006BB3534B0122C3F8802E01F003F805464A
:101720004E4B5B6F13F0020F34D100F0FBFF401BF8
:101730000228F5D9032031E1484A136823F0F80361
:10174000216943EAC1031360DDE7454B00221A60BB
:1017500000F0E8FF0546414B1B6813F0020FD2D0A2
:1017600000F0E0FF401B0228F5D9032016E13C4BB6
:101770000022C3F8802E00F0D5FF0546374B5B6F83
:1017800013F0020F06D000F0CDFF401B0228F5D960
:10179000032003E1236813F0040F77D02F4B1B6C59
:1017A00013F0805F33D1002301932C4B1A6C42F06D
:1017B00080521A641B6C03F080530193019B012536
:1017C000284B1B6813F4807F23D0A368012B34D0EF
:1017D000052B38D0214B1A6F22F001021A671A6FBD
:1017E00022F004021A67A368002B3DD000F09AFF94
:1017F00006461A4B1B6F13F0020F46D100F092FF02
:10180000801B41F288339842F3D90320C6E00025BB
:10181000D6E7144A136843F48073136000F082FF24
:101820000646104B1B6813F4807FCED100F07AFF80
:10183000801B0228F5D90320B0E0084A136F43F05B
:1018400001031367CFE7054B1A6F42F004021A67D2
:101850001A6F42F001021A67C5E700BF0038024064
:10186000000047420070004000F05CFF0646524B0B
:101870001B6F13F0020F08D000F054FF801B41F2E1
:1018800088339842F3D9032088E0EDB9A369002B8F
:1018900000F08380484A926802F00C02082A51D076
:1018A000022B17D0454B00221A6600F03BFF04467E
:1018B000414B1B6813F0007F42D000F033FF001B48
:1018C0000228F5D9032069E03B4A136C23F08053CA
:1018D0001364DBE7394B00221A6600F023FF05464C
:1018E000354B1B6813F0007F06D000F01BFF401B38
:1018F0000228F5D9032051E0E369226A1343626AA2
:1019000043EA8213A26A5208013A43EA0243E26AB6
:1019100043EA0263284A5360284B01221A6600F00A
:1019200001FF0446244B1B6813F0007F06D100F032
:10193000F9FE001B0228F5D903202FE000202DE03E
:1019400000202BE0012B2BD01B4B5B6803F48001A4
:10195000E269914226D103F03F02216A8A4223D1F3
:10196000616A47F6C0721A40B2EB811F1ED103F4C0
:101970004031A26A5208013AB1EB024F18D103F08C
:101980007063E26AB3EB026F14D1002006E001201D
:101990007047012002E0012000E0002002B070BD8D
:1019A0000120FBE70120F9E70120F7E70120F5E737
:1019B0000120F3E70120F1E7003802400000474230
:1019C00008B5334B9B6803F00C03042B5BD0082B4A
:1019D0005BD12F4B5A6802F03F025B6813F4800F13
:1019E0002CD02B4B5868C0F388104FEA401CBCEB3E
:1019F000000C6EEB0E0E4FEA8E1343EA9C634FEA27
:101A00008C11B1EB0C0163EB0E03DB0043EA517365
:101A1000C90011EB000C43F10003590200234FEA07
:101A20004C2041EADC51FFF7EFF8194B5B68C3F338
:101A3000014301335B00B0FBF3F008BD144B586861
:101A4000C0F388104FEA401CBCEB000C6EEB0E0E8E
:101A50004FEA8E1343EA9C634FEA8C11B1EB0C0101
:101A600063EB0E03DB0043EA5173C90011EB000C7A
:101A700043F10003990200234FEA8C2041EA9C5174
:101A8000FFF7C2F8D1E70348D7E70348D5E700BF1F
:101A90000038024000127A000024F400002800F010
:101AA0009B8070B50D4604464F4B1B6803F007033F
:101AB0008B4208D2CBB24C4A1370136803F0070371
:101AC0008B4240F08B80236813F0020F17D013F085
:101AD000040F04D0454A936843F4E05393602368AD
:101AE00013F0080F04D0414A936843F460439360B5
:101AF0003E4A936823F0F003A1680B439360236888
:101B000013F0010F32D06368012B21D09A1E012AF5
:101B100025D9364A126812F0020F61D033498A681B
:101B200022F0030213438B6000F0FCFD06462F4BAE
:101B30009B6803F00C036268B3EB820F16D000F0D1
:101B4000F1FD801B41F288339842F0D9032042E036
:101B5000264A126812F4003FE0D101203BE0234AFC
:101B6000126812F0007FD9D1012034E01E4B1B68AF
:101B700003F00703AB4207D9EAB21B4B1A701B688C
:101B800003F00703AB422DD1236813F0040F06D0F6
:101B9000164A936823F4E053E1680B43936023688B
:101BA00013F0080F07D0114A936823F460432169AA
:101BB00043EAC1039360FFF703FF0C4B9B68C3F339
:101BC00003130B4AD35CD8400A4B18600A4B1868C1
:101BD00014F032F9002070BD012070470120FAE7AF
:101BE0000120F8E70120F6E7003C024000380240FF
:101BF0001CE703080000002008000020014B1868C3
:101C0000704700BF0000002008B5FFF7F7FF044B46
:101C10009B68C3F38223034AD35CD84008BD00BF4E
:101C20000038024014E7030808B5FFF7E7FF044B4C
:101C30009B68C3F34233034AD35CD84008BD00BF5E
:101C40000038024014E703080F2303600B4B9A6827
:101C500002F0030242609A6802F0F00282609A6821
:101C600002F4E052C2609B68DB0803F4E0530361B6
:101C7000034B1B6803F007030B60704700380240FA
:101C8000003C024038B500F04DFD0446464A13685A
:101C900043F001031360444B1B6813F0020F06D19D
:101CA00000F040FD001B0228F5D9032038BD3E4D51
:101CB0002B6843F080032B6000F034FD04460023C2
:101CC000AB60394B9B6813F00C0F08D000F02AFD75
:101CD000001B41F288339842F3D90320E6E700F075
:101CE00021FD0446304A136823F4502313602E4B21
:101CF0001B6813F4003F06D000F014FD001B64289D
:101D0000F5D90320D2E700F00DFD0446264A1368FA
:101D100023F080731360244B1B6813F0007F06D000
:101D200000F000FD001B0228F5D90320BEE700F0FB
:101D3000F9FC04461C4A136823F0806313601A4BB5
:101D40001B6813F0006F06D000F0ECFC001B0228AB
:101D5000F5D90320AAE7144B144A5A60144AC3F871
:101D60008420DA6822F4F852DA60DA6822F4005249
:101D7000DA60DA6842F41F02DA60DA6842F40012CC
:101D8000DA605A6F22F001025A675A6F42F080728D
:101D90005A67084B084A1A60084B186814F04CF848
:101DA000002883D0012081E7003802401030000471
:101DB00000300020000000200024F4000800002073
:101DC00000230F2B00F2E98070B582B065E08568D2
:101DD0004FEA430E032404FA0EF425EA0405CC6806
:101DE00004FA0EF42C438460446824EA02044A682E
:101DF000C2F300129A40224342605CE0DC080834DF
:101E000050F8242003F00705AD004FF00F0E0EFA36
:101E100005FE22EA0E0E0A69AA4042EA0E0240F8C6
:101E200024205CE0072200E0002202FA0EF22A439E
:101E300002345A4D45F82420594A94686FEA0C023E
:101E400024EA0C054E6816F4801F01D04CEA040504
:101E5000534CA560E46802EA04054E6816F4001FBE
:101E600001D04CEA04054E4CE560646802EA0405C2
:101E70004E6816F4003F01D04CEA0405484C6560FA
:101E8000246822404D6815F4803F01D04CEA0402DA
:101E9000434C226001330F2B7DD801229A400C68FD
:101EA00004EA020C32EA0404F4D14C6804F003049E
:101EB000013C012C8BD94A6802F00302032A09D0A5
:101EC000C4685D000322AA4024EA02048A68AA408A
:101ED0002243C2604A6802F00302022A8ED00468DC
:101EE0004FEA430E032202FA0EF224EA02044A6881
:101EF00002F0030202FA0EF2224302604A6812F470
:101F0000403FC7D000220192264A546C44F48044DA
:101F10005464526C02F480420192019A9C08A51C00
:101F20001E4A52F8255003F0030E4FEA8E0E0F2280
:101F300002FA0EF225EA02051B4A90423FF474AF02
:101F400002F5806290421AD002F58062904218D069
:101F500002F58062904216D002F58062904214D061
:101F600002F58062904212D002F58062904210D059
:101F700002F5806290423FF455AF082255E70122F6
:101F800053E7022251E703224FE704224DE70522DF
:101F90004BE7062249E702B070BD704700380140A8
:101FA000003C0140003802400000024000230F2B9B
:101FB00000F28F80F0B52DE0072500E0002505FA3E
:101FC0000CF5A54269D004685D004FF0030C0CFAD3
:101FD00005FC24EA0C0404604FEAD30E0EF1080E4F
:101FE00050F82E4003F00706B6000F25B54024EA4E
:101FF000050440F82E40C46824EA0C04C460446818
:1020000024EA02024260826822EA0C028260013302
:102010000F2B5DD801229A4002EA010632EA010440
:10202000F5D14FEA930E0EF102052A4C54F82540E3
:1020300003F0030C4FEA8C0C0F2505FA0CF73C401B
:10204000254DA842BAD005F58065A84219D005F5FE
:102050008065A84217D005F58065A84215D005F522
:102060008065A84213D005F58065A84211D005F51A
:102070008065A8420FD005F58065A8429CD0082550
:102080009DE701259BE7022599E7032597E70425AE
:1020900095E7052593E7062591E7104C256825EA85
:1020A00006052560656825EA06056560E56825EA98
:1020B0000605E560A56825EA0605A560054E0EF152
:1020C000020456F8245025EA070546F824507AE71A
:1020D000F0BD70470038014000000240003C014064
:1020E0000369194201D001207047002070470AB1EE
:1020F00081617047090481617047436901EA030205
:1021000021EA030141EA02418161704730B4056868
:102110002C6824F480242C60046863608368402B5E
:1021200005D0036899600368DA6030BC70470368C3
:102130009A600368D960F8E710B40368D9B210391F
:102140000A4AA2FB01421209094CA25CC2655F293E
:1021500007D96FF3090304338365806D5DF8044B81
:1021600070476FF309038365F7E700BFABAAAAAA1C
:102170002CE70308836A826992B9012B0AD0022BEB
:1021800002D00BB100207047C36A13F0807F28D1C2
:1021900000207047C36AB3F1C07F24D0002070478D
:1021A000B2F5005F09D0022B25D9032B25D1C36AD4
:1021B00013F0807F23D100207047032B03D8DFE882
:1021C00003F01404140A00207047C36A13F0807FE0
:1021D0000DD100207047C36AB3F1C07F09D0002041
:1021E000704701207047012070470120704701208F
:1021F0007047012070470120704700207047012080
:102200007047000070B5044600F08CFA002C5BD0DB
:102210000546022384F83530002384F834302268E0
:10222000136823F00103136023681A6812F0010F8A
:102230000AD000F077FA431B052BF5D920236365FC
:10224000032084F8350070BD1A6820491140626887
:10225000A0680243E06802432069024360690243C8
:10226000A0690243E0690243206A02430A43616AAB
:1022700004291ED01A602668756925F00705636A6F
:102280001D43042B07D1A36A1D43E36A1BB12046FB
:10229000FFF770FF90B975612046FFF74DFFE26DC3
:1022A0003F239340836000206065012384F835302C
:1022B000C9E7E16A206B01430A43DBE7402363651A
:1022C000012084F83500BEE70120BCE73F8010F014
:1022D00038B50446856D90F8340001282AD00120D5
:1022E00084F8340094F83500012804D0002384F8E1
:1022F0003430022038BD022084F8350000206065AB
:102300002046FFF703FFE26D3F239340AB60226856
:10231000136843F016031360236C23B1226813681B
:1023200043F0080313602268136843F0010313604D
:102330000020DFE70220DDE770B50446866D00F07F
:10234000F1F994F83530022B06D080236365002321
:1023500084F83430012070BD05462268136823F0EC
:10236000160313602268536923F080035361236CC2
:10237000E3B12268136823F008031360226813682E
:1023800023F00103136023681B6813F0010F11D0C1
:1023900000F0C8F9431B052BF5D920236365032002
:1023A00084F83500002384F83430D4E7A36C002B84
:1023B000DFD1E3E7E26D3F239340B360012384F86C
:1023C0003530002084F83400C5E790F83530022B12
:1023D00003D08023436501207047052380F8353002
:1023E0000268136823F001031360002070470000A7
:1023F000F0B583B0044600230193724B1D68724B05
:10240000A3FB0535AD0A876D3E68C26D0823934076
:10241000334210D003681A6812F0040F0BD01A6808
:1024200022F004021A60C26D08239340BB60436D22
:1024300043F001034365E26D01239340334209D029
:102440002268526912F0800F04D0BB60636D43F0C4
:1024500002036365E26D04239340334209D022688E
:10246000126812F0020F04D0BB60636D43F00403E6
:102470006365E26D10239340334224D022681268D2
:1024800012F0080F1FD0BB6023681A6812F4802F67
:102490000DD01B6813F4002F04D1236C9BB1204690
:1024A000984710E0A36C73B1204698470BE01A6878
:1024B00012F4807F03D11A6822F008021A60236C9C
:1024C0000BB120469847E26D20239340334254D00D
:1024D0002268126812F0100F4FD0BB6094F83530AC
:1024E000052B0ED023681A6812F4802F33D01B6896
:1024F00013F4002F2AD1636C002B3ED0204698475E
:102500003BE02268136823F01603136022685369C6
:1025100023F080035361236CA3B12268136823F076
:1025200008031360E26D3F239340BB60012384F8EE
:102530003530002384F83430236D002B3FD0204603
:1025400098473CE0A36C002BE7D1EBE7E36BA3B12A
:102550002046984711E01A6812F4807F09D11A6862
:1025600022F010021A60012384F83530002384F829
:102570003430E36B0BB120469847636DFBB1636D5C
:1025800013F0010F17D0052384F835302268136843
:1025900023F001031360019B01330193AB4204D884
:1025A00023681B6813F0010FF5D1012384F835303F
:1025B000002384F83430E36C0BB12046984703B015
:1025C000F0BD00BF00000020B5814E1B002807DBD6
:1025D00000F01F02400901239340024A42F82030D4
:1025E000704700BF00E100E0002808DB0901C9B224
:1025F00000F1604000F5614080F80013704700F082
:102600000F000901C9B2014B1954704714ED00E0E5
:1026100000B500F00700C0F1070CBCF1040F28BFA3
:102620004FF0040C031D062B0ED9C31E4FF0FF3EC6
:102630000EFA0CF021EA000199400EFA03FE22EA9C
:102640000E0241EA020000BD0023EFE7074AD3680B
:1026500023F4E0631B041B0C000200F4E06003435E
:1026600043F0BF6343F40033D360704700ED00E0F4
:1026700010B50446054BD868C0F30220FFF7C8FF29
:1026800001462046FFF7B0FF10BD00BF00ED00E09F
:1026900008B5FFF79BFF08BD7047000010B50A4B57
:1026A0000A4A1A6200241C62094A5A625C62094A98
:1026B0001A611C61C1225A615C6101229A619C61AC
:1026C000FFF7EAFF204610BD00380240FFC9FEF6C2
:1026D00033797704FF11602208B50B4B1A6842F476
:1026E00000721A601A6842F480621A601A6842F432
:1026F00080721A600320FFF7A9FF0F2013F09CFBE4
:1027000012F0A6FF002008BD003C0240034A1168F9
:10271000034B1B780B441360704700BFC424002098
:1027200004000020014B1868704700BFC42400203B
:1027300038B50446FFF7F6FF0546B4F1FF3F02D077
:10274000044B1B781C44FFF7EDFF401BA042FAD35B
:1027500038BD00BF040000202DE9F04182B00546DD
:1027600000230193D0F8688008F1120350F8234049
:10277000C66E012714E001A811F090FC019B13B173
:102780002362A36011E000270FE06B6943F48043EC
:10279000636015E003F1120255F82240013E9846AD
:1027A000CEB1C7B1236A002BE5D0002FF8D0AB6DB6
:1027B000002BEAD16B6943F0004343F4804363602C
:1027C000236843F00043236008F10103032BE1D9A0
:1027D000A8F10303DEE7EB6EB34211D008F1030367
:1027E00003F00303BFF35F8F2A6903EB830302EB5C
:1027F000C3022B6803F580539A60C5F86880EE66C3
:1028000002B0BDE8F08100005079137943EA00235B
:1028100007480B50D07893781B0443EA0063507844
:1028200043EA002312781343024A8B50704700BFDB
:10283000408002404480024030B4002208E0C46876
:10284000DC6051F80C3043F4400341F80C300132A5
:10285000032A1FD8C16802EB82034FEAC30C01EBC5
:10286000C303002441F80C405C609C60DC60941D54
:1028700040F8243051F80C4044F4801441F80C40E6
:10288000022ADCD8541C04EB8404C56805EBC4049C
:10289000DC60D6E700238362C268036803F58053D7
:1028A0001A6130BC704710B4002202E00169D9609F
:1028B0000132032A28D8046902EB82034FEAC30CD1
:1028C00004EBC303002144F80C1059609960D960EF
:1028D000196259624FF0004144F80C10416941F40B
:1028E00080415960596821F00041596002F112019C
:1028F00040F82130022AD9D80469511C01EB81012A
:1029000004EBC104DC60D3E70023C3650366836680
:10291000C36683650269036803F58053DA605DF876
:10292000044B7047F0B5856A00EB85039B698C68A2
:102930001E68002EC0F2B3802E1D00EB8606F669DD
:10294000002E40F0AE8026689E605E686FF30C0635
:1029500067683E435E600E6816F0010F05D01E6882
:1029600026F440064F693E431E600E6816F0200FA5
:1029700005D01E6826F040660F693E431E60096858
:1029800011F0040F03D0196841F080011960196833
:1029900041F0805119602F4600264FF0010E27E0CC
:1029A000196821F0804119602EE000EB8C039B69CF
:1029B0001968002930DB0CF1040100EB8101C969C1
:1029C00051BB196821F0805119600EF1010EA46805
:1029D0002168996059686FF30C0167683943596041
:1029E0000136BFF35F8F196841F0004119606746F7
:1029F000A16851B3196821F000511960002ACFD0A5
:102A0000196841F08041196007F1010CBCF1030F16
:102A1000CBD9A7F1030CC8E700EB85039969002225
:102A200004E000EB8301896901321D4672450AD238
:102A3000BFF35F8F0B6823F000430B606B1C032B0D
:102A4000EFD9EB1EEDE70220F0BD1AB31A6842F091
:102A500080421A601A6842F000521A6000EB850545
:102A6000AA69BFF35F8F136843F000431360C26B22
:102A70003B1D00EB8303DA618762EFF310820123D1
:102A800083F31088036C33440133036482F31088AA
:102A90000020D9E71A6822F080421A60DAE70220A3
:102AA000D2E70220D0E7000070B505460C46026868
:102AB00013683C491940A37B5B06207C002861D148
:102AC0004FF400000343607C00285DD14FF4800088
:102AD0000343A0680343E07F43EA00436069034384
:102AE000A07F002852D14FF400500343207F43EAD7
:102AF0000033A0690343207943EA802394F820003F
:102B0000002845D14FF400700343E07B43EAC01333
:102B1000606A034394F8280043EA00130B431360F0
:102B20002B681E680120FFF703FE2B681E602968D2
:102B30008A6922F0BE021204120CA36C1B0494F8E2
:102B40004C0038BB80200343206D034394F85500AC
:102B5000012821D00020034394F8560001281DD0FD
:102B60000020034394F85400012819D000200343A7
:102B700013438B612B689C690120FFF7D9FD2B68FB
:102B80009C6170BD00209DE70020A1E70020ACE71C
:102B90000020B9E70020D6E70820DCE70420E0E7C2
:102BA0000220E4E70F8120FD70B505460C4602685F
:102BB00002F580539B692B491940237B002B4DD193
:102BC0004FF08063607B43EA4063607F002847D119
:102BD0004FF480100343A07B43EA405360690343F2
:102BE000207F43EAC013A07F43EA8013206A034397
:102BF00094F8240043EA80030B4302F5805293616A
:102C00002B6803F580539E690120FFF791FD2B6827
:102C100003F580539E612279A36843EA4263A26967
:102C200013432269134394F8252043EAC213A26A8E
:102C300043EA8203226813432A6843F4000302F53F
:102C4000805213602B6803F580531C680120FFF746
:102C50006FFD2B6803F580531C6070BD0023B1E746
:102C60000020B7E7233FDEF870B5A4B00646012583
:102C70008DF83C508DF83D5000240D948DF84B405C
:102C80008DF84A508DF848408DF83A508DF8305004
:102C90008DF84C408DF83B4014948DF854401D94B1
:102CA0008DF878401F948DF882408DF880404FF465
:102CB000804310934FF4006311938DF881400BA96A
:102CC000FFF7F2FE8DF80C508DF80D508DF81D5069
:102CD0008DF80E5005948DF81C408DF81E40089418
:102CE0008DF824508DF804504FF4803302934FF444
:102CF000800306934FF4005304938DF825500A94F3
:102D0000009469463046FFF74FFF24B070BD10B500
:102D100082B0044600230193036803F580539A6947
:102D200042F480129A61036803F580539B69019312
:102D30000120FFF7FDFC2368019A03F580539A6197
:102D400002B010BD00286CD030B583B00446D0F876
:102D50008430002B34D000230193334B5A6C42F45F
:102D600080425A645B6C03F480430193019B2F4BB8
:102D70005A6822F400025A605A68A1680A435A60ED
:102D80005B68236803F580531A6842F001021A60F9
:102D9000FFF7C8FC0546236803F580531B6813F052
:102DA000010F13D0FFF7BEFC401BB0F5FA7FF2D93C
:102DB0000423C4F88830E023C4F8843001202EE0D6
:102DC0002023C0F8843011F079F8C4E72046FFF7DB
:102DD0004BFF2046FFF730FD2046FFF764FD626899
:102DE00000212046FFF710FD2268D36B43F40273E5
:102DF000D3632268D2F80C3143F4003343F060030C
:102E0000C2F80C312268D2F8103143F40313C2F82F
:102E100010310020C4F888001023C4F8843003B0B7
:102E200030BD0120704700BF00380240003801402B
:102E3000D0F88430102B01D00120704770B50446C3
:102E40002023C0F88430012585650423C366FFF77D
:102E500083FC23681E682846FFF76AFC23681E600F
:102E6000236803F580539A6942F400529A612368FB
:102E700003F580539A6942F002029A612046FFF7F7
:102E800046FF2268136843F00803136023681E6836
:102E90002846FFF74DFC23681E602268136843F044
:102EA00004031360226802F58052D36943F4D033DF
:102EB00043F0C103D3614023C4F88430002070BDC7
:102EC00038B5D0F88430402B01D0012038BD0446FD
:102ED0002023C0F88430026802F58052D36923F4BD
:102EE000D03323F0C103D361036803F580539A699B
:102EF00022F400529A61036803F580539A6922F024
:102F000002029A610268136823F0040313600368E5
:102F10001D680120FFF70CFC23681D602046FFF7A9
:102F2000F6FE2268136823F00803136023681D6807
:102F30000120FFF7FDFB23681D60002308E003F17B
:102F4000120254F822104A6842F000424A600133EB
:102F5000032BF4D90020A0651023C4F88430B5E712
:102F600010B5044629B1D4F88430402B09D0012093
:102F700010BDD0F8883043F00103C0F8883001203C
:102F8000F6E74B6BE36301222046FFF7CBFC38B139
:102F9000D4F8883043F00203C4F888300120E7E712
:102FA000BFF34F8FA36A5A1CA262032A01D9033BC5
:102FB000A362236803F58052526912F0040F08D00F
:102FC00003F5805304225A61236803F580530022DD
:102FD0005A600020CCE72DE9F84F044681B18A46BB
:102FE000D0F88430402B6CD1C76D07F1120350F834
:102FF0002350C36EC3F104094FF00008464634E085
:10300000D0F8883043F00103C0F88830012059E03F
:103010002B6813F4007F02D00023236663662B68BD
:10302000C3F30D4B2B6813F4807F03D02B68236709
:103030004FF00108AA682A625B4604F1800104F19E
:103040007C0011F051F8236E01332366636E5B44FC
:10305000636600232B627B1C032B00D9FB1E03F14C
:10306000120254F8225001361F462B68002B14DB45
:103070004E4512D2B8F1000F0FD12B6813F4807FA8
:1030800003D0EB69A367AB6963672B6813F4007F18
:10309000BED1E36F002BBBD1DDE7E36E3344E366C3
:1030A0002BB9E765B8F1000F05D101200AE02046F1
:1030B000FFF752FBF5E7E36FCAF800300020E06746
:1030C00000E00120BDE8F88FF8B50646056C446CB9
:1030D000012711E0631C032B22D9033C0CE011F003
:1030E0001EF8231D06EB83030022DA61631C032B09
:1030F00014D9033C35647464A5B19FB1013D231D0F
:1031000006EB8303D8690028E4D0F26804EB84035B
:10311000DB00D358002BE2DA0027EDE71C46E9E795
:103120001C46E9E70020F8BD704770472DE9F041E3
:1031300004460368D3F8388003F580525569D66990
:10314000364A576915F0400F02D016F0400F34D1BF
:1031500015F0010F02D016F0010F35D115F4004F14
:1031600023D016F4004F20D0D4F8883043F0080361
:10317000C4F8883015F4005F30D0236803F580531D
:103180005A6922F07F4222F4010222F45F4222F0C7
:10319000FF02C4F88C20DA6922F4C032DA61E0233D
:1031A000C4F88430204610F053FE18F0080F20D1E8
:1031B00017F4002F2AD1BDE8F08103F58053184A97
:1031C0005A6110F035FEC3E7236803F580534FF0D2
:1031D00001125A61204610F033FEBFE7236803F561
:1031E00080535A6948F280610A40C4F88C205961C2
:1031F000D8E72368DB6A03F06003C4F89430204604
:10320000FFF792FF0023C4F89430D1E7034B4FF44B
:1032100000225A612046FFF788FFCCE7003C0140BE
:1032200040000100F8B505461E460068036903F03A
:103230001C03C90289B21943940104F4F8640C43D5
:1032400044F001040461FFF76DFA074601E02B68C2
:103250001C6914F0010F07D0FFF764FAC01BB0F52A
:10326000803FF4D3012004E02B685B699BB233609C
:103270000020F8BD70B505460668306900F01C00F6
:10328000C90289B20143940104F4F8640C4344F088
:1032900003049BB273612B681C61FFF743FA064677
:1032A00001E02B681C6914F0010F07D0FFF73AFA10
:1032B000801BB0F5803FF4D3012000E0002070BDFA
:1032C000002979D002681268C2F3001281F8282020
:1032D0000268126802F060024A620268126802F430
:1032E0000072B2FA82F2520981F820200268126854
:1032F000C2F30042CA770268126802F40052B2FABE
:1033000082F252098A7702681268C2F300320A77A1
:103310000268126802F400628A610268126802F4AC
:1033200080424A610268126802F48002B2FA82F2B4
:1033300052094A740268126802F40002B2FA82F278
:1033400052090A7402681268C2F3C012CA73026892
:10335000126802F460228A6002681268C2F3802256
:103360000A7102681268C2F340628A730268926945
:10337000C2F3400281F854200268926902F0800290
:10338000B2FA82F2520981F84C200268926902F086
:1033900030020A6502689269120C8A6402689269B6
:1033A000C2F3800281F8562002689269C2F3C0021B
:1033B00081F85520002070470120704751B108B5B1
:1033C000D0F88430102B01D0012008BDFFF76CFB32
:1033D0000020FAE70120704738B5054603681C69EC
:1033E00024F01C04FEF70AFC0C4B984204D844F06D
:1033F00008042B681C6138BD094B984202D244F086
:103400000C04F6E7074B9842F3D9074B984202D8D1
:1034100044F00404EDE744F01004EAE7BF0E16029E
:1034200000879303FFE0F5057FD1F008D0F888000E
:103430007047D0F88C0070472DE9F04383B0D0F886
:10344000008001EBC10300EB83039A6A5B6A9A4236
:1034500054D807460C469B1A01EBC10200EB8202CE
:10346000D2699A4200D31A4602F103094FEA990938
:1034700015E006F103094FEA990904EBC40507EBCF
:103480008505296ABB790093B3B2E2B2404601F0E8
:103490004AF92B6A33442B62AB6A3344AB6208EBC4
:1034A000441303F510639B699BB24B4512D304EBA5
:1034B000C40307EB83039A6A5B6A9A420AD24BB150
:1034C0009B1A04EBC40207EB8202D6699E42D0D35A
:1034D0001E46CEE704EBC40307EB83077A6ABB6A98
:1034E0009A420FD804F00F040122A240D8F83438D1
:1034F00023EA0203C8F83438002000E0012003B0BA
:10350000BDE8F0830020FAE730B583B000287AD018
:103510000446056890F89534C3B1032384F89534C4
:10352000B5F1A04F17D0206800F0AEFE237C8DF8D7
:103530000030231D0ECB206800F0E5FD70B10223A2
:1035400084F895340125284603B030BD80F89434C2
:1035500010F0EAFDE1E70023A371E4E70021206811
:1035600001F0F7FA0246B8B903462079984218D913
:1035700003EBC30104EB8101012048750B75CB857A
:1035800000200876C861086203EBC30104EB8101E7
:1035900048620133DBB2E8E7022384F89534012561
:1035A000D1E7904217D902EBC20304EB8303002159
:1035B00083F8551283F8542283F85812C3F85C122A
:1035C000C3F8601202EBC20304EB8303C3F8641276
:1035D0000132D2B2E5E7237C8DF80030231D0ECBFB
:1035E000206800F0A7FE054620B1022384F8953438
:1035F0000125A8E700236374012384F8953420682B
:1036000001F066FA9FE701259DE7036890F894248E
:10361000012A1AD010B50446012280F89424DA68F1
:1036200012F0400F02D0427B012A09D0206800F03E
:1036300025FE206801F03EFA002084F8940410BDB5
:103640009A6B42F480329A63F0E7022070470000E0
:1036500070B504460D460068066C00EB411303F597
:1036600030639A68A179012911D038498E4256D029
:103670003DB905EBC50304EB8303D3F86432002B9B
:103680005ED0E9B2204610F0A5FD002070BD12F01A
:10369000080F09D02E498E42F7D912F4004FF4D00A
:1036A0004FF400429A60F0E712F0200F02D020227F
:1036B0009A60EAE712F0280FE7D125498E4206D931
:1036C00012F4004F03D04FF400429A60DDE705EB9F
:1036D000C50204EB8202D2F874121B69C3F3120311
:1036E000CB1AC2F868327DB905EBC50204EB820241
:1036F000D2F864226AB105EBC50204EB8202D2F86B
:1037000060121944C2F86012E9B2204610F062FD5E
:10371000BBE704F29C42012101F05AFAF4E712F4EB
:10372000004F03D04FF400429A60AEE712F0200F32
:1037300001D020229A60E9B2204610F04BFDA4E7A8
:1037400004F29C42002101F043FA9AE70A31544FF7
:103750000A30544F38B5044603681D6C03EB41131F
:10376000D3F8081B0E4A954207D903F5306311F4CC
:10377000004F02D04FF400429A60204610F022FD24
:10378000074B9D4202D9A379012B01D0002038BDFF
:1037900004F29C420121206801F01AFAF6E700BF0A
:1037A0000A30544F90F89434012B0CD010B50446D5
:1037B000012380F894344174006801F06BF9002013
:1037C00084F8940410BD0220704738B505468C4635
:1037D00011F0800F2BD101F00F0E0EEBCE04A400E0
:1037E00004F514740444211D0EEBCE0E00EB8E0E76
:1037F00000208EF855020CF00F0C81F800C0C2F3C7
:103800000A028A600B714A780AB1A1F81AC0022B29
:103810001CD095F89434012B1BD0012385F89434E7
:10382000286800F064FE002085F8940438BD01F09B
:103830000F0000EBC001890010312944043100EB76
:10384000C00005EB800001244475D4E700234B71D0
:10385000DFE70220EAE710B504460A4611F0800FC0
:1038600020D101F00F0000EBC0039B0003F514739F
:103870002344191D00EBC00004EB8000002380F8F6
:10388000553202F00F020A7094F89434012B18D0CC
:10389000012384F89434206800F076FE002084F838
:1038A000940410BD01F00F0000EBC0039B00103327
:1038B0002344191D00EBC00004EB80000123437575
:1038C000DFE70220EDE710B5144601F00F0C0CEB1A
:1038D000CC01890001F51471014404310CEBCC0ECC
:1038E00000EB8E0ECEF86022CEF864320023CEF8C4
:1038F00068328EF855328EF854C28279012A04D08B
:10390000006800F027FF002010BDCEF87042F7E7F6
:1039100001F00F0101EBC10100EB8100D0F868025A
:10392000704710B5144601F00F0C0CEBCC01890068
:103930001031014404310CEBCC0E00EB8E0ECEF8AE
:103940002020CEF824300023CEF8283001238EF832
:1039500015308EF814C082799A4204D0006800F0C5
:10396000F9FE002010BDCEF83040F7E738B501F081
:103970000F050279AA4238D304460B4611F0800F96
:103980001FD101EBC101890001F51471014404311B
:1039900003EBC30300EB8303002283F855220123CA
:1039A0008B700D7094F89434012B20D0012384F88F
:1039B0009434206801F013F885B1002084F8940451
:1039C00038BD05EBC501890010310144043105EB18
:1039D000C50300EB830301225A75E0E704F29C4221
:1039E000A179206801F0F4F8E7E70120E8E7022078
:1039F000E6E701F00F0302799A4230D310B504468E
:103A000011F0800F1ED103EBC301890001F5147181
:103A10000144043103EBC30200EB8202002082F870
:103A2000550200228A700B7094F89434012B18D040
:103A3000012384F89434206800F0FEFF002084F80D
:103A4000940410BD03EBC30189001031014404311B
:103A500003EBC30200EB820201205075E1E7012075
:103A600070470220EDE708B511F0800F0CD101F08E
:103A70000F0101EBC101890001F51471014404310A
:103A8000006800F0F1FD08BD01F00F0101EBC1017C
:103A90008900103101440431F2E72DE9F04F83B081
:103AA00004460568284601F050F810B103B0BDE89F
:103AB000F08F0646206801F019F80028F6D005F5C9
:103AC0000067BB68C3F30D23C4F8D434206801F049
:103AD0000DF810F0020F04D02268536903F00203BE
:103AE0005361206801F002F810F0100F15D0226821
:103AF000936923F010039361D5F8208008F00F0933
:103B000008F4F013B3F5802F4CD0B3F5402F6FD0ED
:103B10002268936943F010039361206800F0E6FF88
:103B200010F4002F76D1206800F0E0FF10F4802F11
:103B300040F0E080206800F0D9FF0028C0F26181E9
:103B4000206800F0D3FF10F4006F09D0BB6813F0B9
:103B5000010F40F06E812268536903F400635361E2
:103B6000206800F0C3FF10F4805F40F06681206899
:103B700000F0BCFF10F4005F40F0B381206800F05B
:103B8000B5FF10F0080F40F0C481206800F0AEFFD0
:103B900010F0800F00F0D781AB6923F08003AB6198
:103BA0000126C0E147F6F07318EA030FB0D04FEAE0
:103BB000181A4FEAC903019309EBC90B04EB8B0BED
:103BC000C8F30A12DBF86012284600F0E5FEDBF8C5
:103BD0006032CAF30A0A5344CBF86032DBF8683229
:103BE000019A4A4404EB82025344C2F868328FE7D8
:103BF000082204F29C41284600F0CEFE09EBC903DE
:103C000004EB8303D3F86822C8F30A184244C3F8CC
:103C100068227DE7206800F06DFF8046B14635E000
:103C200005EB49130122C3F8082B49462046FFF74C
:103C30000FFD3CE005EB49130822C3F8082B494669
:103C40002046FFF787FD35E009EBC90304EB83034A
:103C500093F85732012B41D005EB49130222C3F8E8
:103C6000082B1AF0200F04D005EB49132022C3F8CB
:103C7000082B1AF4005F05D005EB49134FF40052EE
:103C8000C3F8082B09F101094FEA5808B8F1000FF1
:103C90003FF449AF18F0010FF4D05FFA89FB5946A1
:103CA000206800F037FF824610F0010FB8D11AF0FB
:103CB000080FBFD11AF0100F04D005EB49131022E2
:103CC000C3F8082B1AF0020FCBD06B6913F0800FEA
:103CD000BAD07B6843F480637B60B5E709EBC90326
:103CE00004EB8303002283F857225946204610F044
:103CF000C1FAB1E7206800F005FF8046B14625E033
:103D00005946204610F072FA1AF0080F04D005EB5D
:103D100049130822C3F808291AF0100F04D005EB44
:103D200049131022C3F808291AF0400F04D005EBFC
:103D300049134022C3F808291AF0020F40D11AF0A3
:103D4000800F59D109F101094FEA5808B8F1000F65
:103D50003FF4F0AE18F0010FF4D05FFA89FB59463A
:103D6000206800F0E0FE824610F0010FCCD009F090
:103D70000F02012101FA02F27B6B23EA02037B634B
:103D800005EB4913C3F80819A3798B42B8D109EBA5
:103D9000C90304EB83031A6AD9690A441A62B9F1A8
:103DA000000FADD109EBC90304EB83035B6A002B61
:103DB000A6D104F29C420121206800F009FF9FE790
:103DC0004946284600F066FA09EBC90304EB830371
:103DD000DB7D012B05D005EB49130222C3F808292E
:103DE000ADE709EBC90304EB83030022DA755946FA
:103DF000204610F045FAEEE749462046FFF71CFB47
:103E0000A0E77B6823F001037B6094F8CC34012B9E
:103E100008D0204610F028FA2268536903F00043C6
:103E200053618DE6002184F8CC14204600F03EF961
:103E3000F2E7204610F000FA8DE67B6823F00103DC
:103E40007B601021206800F025FA1AE005EB46138C
:103E50004FF67F31C3F80819D3F8002922F4001275
:103E6000C3F80029C3F8081BD3F8002B22F4001272
:103E7000C3F8002BD3F8002B42F00062C3F8002BEC
:103E800001362379B342E1D8FB6943F00113FB61AA
:103E9000E37BDBB1D7F8843043F00B03C7F8843001
:103EA0007B6C43F00B037B64D5F8003823F4FE638E
:103EB000C5F8003804F29C42A179206800F088FE21
:103EC0002268536903F48053536150E67B6943F4DD
:103ED000005343F02B037B613B6943F00B033B61D1
:103EE000E2E7206800F066FE206800F0EFFAE0717B
:103EF0002668FDF783FE0146E279304600F04CF972
:103F0000204610F084F92268536903F4005353618A
:103F100034E6204610F075F92268536903F008036F
:103F2000536132E601362379B3420CD906EBC6035E
:103F300004EB830393F85732012BF3D1F1B22046FF
:103F4000FFF791FDEEE7206800F0D0FD10F4801F30
:103F500025D1206800F0CAFD10F4001F58D00123BD
:103F600026E001362379B3421BD905EB4613D3F87B
:103F7000002906EBC60304EB83031B7E012BF0D163
:103F8000002AEEDA06EBC60304EB83030122DA759E
:103F900066F07F01C9B22046FFF765FDE1E7012623
:103FA000E0E72268536903F480135361D1E70133DA
:103FB00022799A4227D905EB4312D2F8001B03EB72
:103FC000C30204EB820292F85822012AEFD10029A1
:103FD000EDDAD4F8D42482EA114212F0010FE6D1CE
:103FE00003EBC30204EB8202012182F85712AA6993
:103FF00042F08002AA616A6912F0800FD7D17B6813
:1040000043F400737B602268536903F40013536127
:10401000206800F06BFD10F0804F10D1206800F098
:1040200065FD10F0040F3FF441AD23685D6815F0A5
:10403000040F0DD1226853682B43536036E52046A8
:1040400010F024F92268536903F080435361E5E7D7
:10405000204610F021F9EDE710B40468606A31B928
:1040600040EA0240A06200205DF8044B70478C4695
:10407000A36A00EB1340002308E003F1400104EBC6
:104080008101496800EB11400133DBB20CF1FF31D3
:104090008B42F2D340EA02400CF13F0104EB810471
:1040A0006060E0E70368596200207047704782B0A3
:1040B00000230193019B01330193019BB3F1706FC6
:1040C0001CD80369002BF5DA0A23019302E0019B57
:1040D000013B0193019B002BF9D1036943F00103DC
:1040E0000361019B01330193019BB3F1706F08D809
:1040F000036913F0010FF4D1002000E0032002B0A7
:1041000070470320FBE784B010B5044603A880E89D
:104110000E009DF81130012B21D1A36B23F48033C5
:10412000A363E36823F4840323F04003E360E368BC
:1041300023F44013E3609DF81830012B0AD0204689
:10414000FFF7B5FF9DF80E30012B1CD0BDE81040E5
:1041500004B07047E36843F48013E360EFE7E3687B
:1041600043F04003E3602046FFF7A1FF9DF81530C0
:1041700023B9A36B43F48033A363E3E7A36B23F476
:104180008033A363DEE7A36843F00603A360A3685C
:1041900043F02003A360D9E7022A0AD00922C368AA
:1041A00023F47053C360C36843EA8223C3600020D2
:1041B0007047234B0B44234A93422FD9224B0B4485
:1041C000224A93422CD9A1F57403A3F51053204A37
:1041D000934227D9A1F18373A3F5E7431D4A934284
:1041E00022D31D4B0B441D4A93421FD91C4B0B4439
:1041F0001C4A93421CD31C4B0B441C4A934219D3B8
:10420000A1F1B773A3F55853194A934214D3194B2C
:104210000B44194A934211D20722C0E70F22BEE78E
:104220000E22BCE70D22BAE70C22B8E70B22B6E754
:104230000A22B4E70922B2E70822B0E70622AEE775
:10424000405327FFFF340C00401E1BFF3F420F006E
:104250007F4F120020D6130060B6E5FE5FE3160024
:1042600000D3CEFE40771B00C05BB3FEC09121009F
:1042700020753800E05459FEE09C4100836843F00B
:104280000103836000207047836823F0010383608B
:104290000020704782B000230193019B01330193FA
:1042A000019BB3F1706F15D80369002BF5DA002379
:1042B0000193890141F020010161019B01330193C8
:1042C000019BB3F1706F08D8036913F0200FF4D18C
:1042D000002000E0032002B070470320FBE782B01B
:1042E00000230193019B01330193019BB3F1706F94
:1042F00013D80369002BF5DA00230193102303611F
:10430000019B01330193019BB3F1706F08D80369DE
:1043100013F0100FF4D1002000E0032002B070472A
:104320000320FBE7D0F800381943C0F8001800203C
:104330007047000084B0F8B5044607A880E80E0076
:10434000002306E003F1400204EB820200215160E9
:1043500001330E2BF6D99DF8266006BBD4F804383D
:1043600043F00203C4F80438A36B43F40013A363BF
:10437000A36B23F40023A363A36B23F48023A36321
:104380000023C4F8003E9DF82130012B15D19DF883
:104390001F306BB900212046FFF7C4FF11E0A36B6B
:1043A00023F40013A363A36B43F40023A363E7E7A1
:1043B00001212046FFF7B6FF03E003212046FFF767
:1043C000B1FF10212046FFF765FF054600B101252A
:1043D0002046FFF784FF00B1012504F5006C00239F
:1043E000CCF81030CCF81430CCF81C300DE04FF085
:1043F0009040C2F8000902E00020C2F80009002243
:104400000A614FF67F328A6001339DF81C10994291
:104410000ED904EB431202F51061D2F8000900280E
:10442000EADA002BE3D14FF00060C2F80009E6E7BA
:1044300000230AE0BBB14FF09047C2F8007B002296
:1044400002614FF67F3282600133994210D904EB4A
:10445000431202F53060D2F8007B002FEADB002720
:10446000C2F8007BEBE74FF00067C2F8007BE6E79D
:10447000DCF8103023F48073CCF810300023A361F3
:104480006FF0804363619DF81E301BB9A36943F050
:104490001003A361A2690C4B1343A3619DF8223062
:1044A0001BB1A36943F00803A361012E04D0284681
:1044B000BDE8F84004B07047A36943F0804343F07F
:1044C0000403A361F3E700BF00383C80D0F808384C
:1044D00003F00603022B04D0062B04D02BB90020D6
:1044E000704702207047022070470F20704710B5B8
:1044F00091F800C04B78012B23D000F5006ED0F866
:104500001C380CF00F040122A24043EA0243C0F819
:104510001C3800EB4C10D0F8003B13F4004F0ED1C8
:10452000D0F8003B8A68C2F30A02097942EA814264
:10453000134343F0805343F40043C0F8003B002092
:1045400010BDD0F81C280CF00F0E03FA0EF39BB22E
:104550001343C0F81C3800EB4C10D0F8003913F4AA
:10456000004FECD1D0F800398A68C2F30A02097909
:1045700042EA814242EA8C52134343F0805343F4AF
:104580000043C0F80039DAE730B40B784A78012AE2
:1045900026D000EB4313D3F8002B002A52DBD0F8CF
:1045A0003C480A7802F00F024FF0010C0CFA02F2BC
:1045B00024EA0242C0F83C28D0F81C28097801F00F
:1045C0000F010CFA01FC22EA0C42C0F81C28D3F8B7
:1045D000001B234A0A40C3F8002B002030BC704760
:1045E00000EB4313D3F80029002A1EDBD0F83C5817
:1045F0000A7802F00F02012404FA02F292B225EACC
:104600000202C0F83C28D0F81C28097801F00F01FC
:104610008C40A4B222EA0402C0F81C28D3F8001986
:10462000104A0A40C3F80029D7E7D3F8002942F01E
:104630000062C3F80029D3F8002942F08042C3F891
:104640000029D3E7D3F8002B42F00062C3F8002B17
:10465000D3F8002B42F08042C3F8002B9FE700BF45
:104660000078F3EF007833EC10B483B002460023F7
:104670000193487801280BD00B7802EB4313D3F851
:10468000000B00282DDB002003B05DF8044B7047C1
:104690000B7802EB4313D3F80049002C01DB002018
:1046A000F2E7D3F8004944F00064C3F800490B78FE
:1046B00002EB4313D3F8004944F08044C3F80049A7
:1046C000019B01330193019C42F210739C42DBD8A1
:1046D0000B7802EB4313D3F80039002BF0DB0020FA
:1046E000D2E7D3F8000B40F00060C3F8000B0B7862
:1046F00002EB4313D3F8000B40F08040C3F8000BEB
:10470000019B01330193019842F21073984208D83B
:104710000B7802EB4313D3F8003B002BF0DB0020B7
:10472000B2E70120B0E710B59DF8084084B9033323
:104730004FEA930E4FF0000C08E000EB023303F554
:10474000805351F8044B1C600CF1010CF445F4D378
:10475000002010BDF0B583B00C784B78012B2DD024
:1047600000EB441C0CF530631D696FF312051D61ED
:104770001D696FF3DC451D61002C40F0CE800C6993
:104780000CB18C680C618C680C621D69C4F3120456
:104790002C431C611C6944F400241C61012A00F0B4
:1047A000DF800B79012B00F0E180DCF8003B43F067
:1047B0000443CCF8003B002003B0F0BD0B6973BB91
:1047C00000EB4413D3F810596FF3DC45C3F81059CC
:1047D000D3F8105945F40025C3F81059D3F81059EF
:1047E0006FF31205C3F81059012A54D000EB44149A
:1047F000D4F8003943F00443C4F800390B79012B95
:1048000072D00B69002BD6D0D0F83438097801F07B
:104810000F0101228A401343C0F83438CBE700EB84
:10482000441303F510631D696FF312051D611D69C3
:104830006FF3DC451D6184B90E698D68AE4200D905
:104840000D611D6945F400251D611D690E69C6F3E2
:10485000120C45EA0C051D61C6E70D698E683544EA
:10486000013DB5FBF6F51E691FFA85FC494F07EAC5
:10487000C54535431D610D79012DE6D11D6925F032
:10488000C0451D611D694FEA4C7C0CF0C04C45EAE7
:104890000C051D61D9E7CB691BB100EB4412C2F8CE
:1048A00014390B79012B08D000EB4414D4F80039EB
:1048B00043F00443C4F800397DE7D0F8083813F416
:1048C000807F08D100EB4412D2F8003943F0005346
:1048D000C2F80039E8E700EB4412D2F8003943F09F
:1048E0008053C2F80039DFE7D0F8083813F4807F2E
:1048F0000CD1D4F8003943F00053C4F800390092C9
:104900000B8A0A78C968FFF70EFF54E7D4F800391C
:1049100043F08053C4F80039F1E70C6954B91C69BD
:104920008D68C5F312052C431C611C6944F40024F6
:104930001C6133E78D682C44013CB4FBF5F4A4B250
:1049400004FB05F50D621D69124E06EAC4442C43B2
:104950001C611C690D6AC5F312052C431C611DE71F
:10496000CA68002A3FF41DAF5A611AE7D0F8083828
:1049700013F4807F06D1DCF8003B43F00053CCF801
:10498000003B12E7DCF8003B43F08053CCF8003BDF
:104990000BE700BF0000F81F10B5844608464FEA39
:1049A000920E02F00302002305E00CF58051096825
:1049B00040F8041B01337345F7D37AB10CF5805CE2
:1049C000DCF800400021CBB2DB0024FA03F300F84E
:1049D000013B0131013A92B2002AF4D110BD0B78AB
:1049E0004A78012A14D000EB4310D0F8002B002A9B
:1049F00006DB2BB1D0F8003B23F08043C0F8003B2E
:104A0000D0F8003B43F40013C0F8003B002070478F
:104A100000EB4310D0F80029002A06DB2BB1D0F8B8
:104A2000003923F08043C0F80039D0F8003943F44E
:104A30000013C0F80039E9E70B784A78012A0ED054
:104A400000EB4310D0F8003B23F40013C0F8003B08
:104A50000B79023BDBB2012B15D90020704700EB2C
:104A60004310D0F8003923F40013C0F800390B7953
:104A7000023BDBB2012BF0D8D0F8003943F0805371
:104A8000C0F80039E9E7D0F8003B43F08053C0F8A4
:104A9000003BE2E7D0F8003823F4FE63C0F80038AA
:104AA000D0F80038090101F4FE610B43C0F800386A
:104AB00000207047D0F8003E23F00303C0F8003E0A
:104AC000D0F8043823F00203C0F8043800207047FF
:104AD000D0F8003E23F00303C0F8003ED0F80438BD
:104AE00043F00203C0F8043800207047426980692F
:104AF00010407047D0F8183800F50060C0691840C1
:104B0000000C7047D0F8183800F50060C0691840F4
:104B100080B2704700EB4111D1F8082B00F500601E
:104B2000406910407047D0F81028D0F8343801F0B0
:104B30000F0C23FA0CF3DB01DBB2134300EB411043
:104B400000F51060806818407047406900F001006F
:104B5000704738B50546C36823F0C043C3600129D8
:104B600013D019BBC36843F08043C36000240A20FC
:104B7000FDF7DEFD0A342846FFF7E7FF08B1C72C32
:104B8000F5D9C82C14D0002038BDC36843F00053B9
:104B9000C36000240A20FDF7CBFD0A342846FFF746
:104BA000D4FF0128EDD0C72CF4D9EAE70120EBE7C8
:104BB0000120E9E7D0F800396FF30A03C0F80039A3
:104BC000D0F8043843F48073C0F8043800207047EC
:104BD00010B4046C154B9C4203D9D0F8003B002B59
:104BE00016DB0024C0F8104BD0F8104B44F400241E
:104BF000C0F8104BD0F8104B44F01804C0F8104B1C
:104C0000D0F8104B44F0C044C0F8104B012903D039
:104C100000205DF8044B7047C0F8142BD0F8003B1F
:104C200043F08023C0F8003BF2E700BF0A30544F46
:104C30004A4B5A6822F440325A605A6841680A4323
:104C40005A600268536823F48073536002685368A3
:104C5000016943EA012353600268536823F04073FB
:104C600053600268536881680B435360026893681D
:104C700023F40063936002689368C1680B439360F8
:104C8000826A374B9A4257D00268936823F0706368
:104C9000936002689368816A0B439360026893682B
:104CA00023F04053936002689368C16A0B4393609A
:104CB0000268936823F00203936002689368017EA0
:104CC00043EA4103936090F82030002B3FD0026804
:104CD000536843F4006353600268536823F46043ED
:104CE000536001684B68426A013A43EA42334B60C1
:104CF0000268D36A23F47003D3620168CB6AC26985
:104D0000013A43EA0253CB620268936823F40073CA
:104D100093600268936890F8301043EA41239360EF
:104D20000268936823F48063936002689368416922
:104D300043EA8123936070470268936823F07063AD
:104D400093600268936823F040539360B0E7026871
:104D5000536823F400635360CAE700BF0023014097
:104D60000100000F38B310B50446036C43B1236C47
:104D700013F0100F0BD00120002384F83C3010BD3D
:104D800010F088FC0023636484F83C30EFE7236C68
:104D900023F4885323F0020343F0020323642046E4
:104DA000FFF746FF00206064236C23F0030343F009
:104DB00001032364E0E701207047000082B0002374
:104DC000019390F83C30012B00F08980012380F89A
:104DD0003C3003689A6812F0010F13D19A6842F0D0
:104DE00001029A60414B1B68414AA2FB03239B0CC2
:104DF00003EB4303019302E0019B013B0193019B01
:104E0000002BF9D10268936813F0010F5CD0036C9A
:104E100023F4E06323F0010343F4807303645368D5
:104E200013F4806F05D0036C23F4405343F4805394
:104E30000364036C13F4805F1BD0436C23F0060300
:104E40004364002380F83C306FF022031360294B49
:104E50005B6813F01F0F27D10368274A934211D0D4
:104E600002F58072934207D0244A934214D0002066
:104E700033E000234364E4E702F50072526812F065
:104E80001F0FF1D19A6812F0405F2AD19A6842F060
:104E900080429A60002020E002F58072526812F091
:104EA000100FEFD0002018E00368134A934201D09E
:104EB000002012E09A6812F0405F14D19A6842F024
:104EC00080429A60002008E0036C43F01003036402
:104ED000436C43F001034364002002B0704702209A
:104EE000FBE70020F9E70020F7E700BF0000002003
:104EF00083DE1B43002301400020014000220140CB
:104F000090F83C30012B19D0012380F83C30026826
:104F1000936823F00103936003689B6813F0010F0B
:104F200007D1036C23F4885323F0010343F00103FA
:104F30000364002380F83C30184670470220704715
:104F400070B504460D4603689A6812F4806F03D06A
:104F50009B6813F4807F19D1FDF7E4FB06462368B4
:104F60001A6812F0020F20D1B5F1FF3FF7D0B5B9A2
:104F700023681B6813F0020FF1D1236C43F0040384
:104F80002364002384F83C30032032E0036C43F0B8
:104F900020030364002380F83C30012029E0FDF762
:104FA000C1FB801BA842DAD9E2E76FF012021A6057
:104FB000236C43F40073236423689A6812F0405F03
:104FC00016D1207EB0B9DA6A12F4700F03D09B6854
:104FD00013F4806F0DD1236C23F480732364236C4E
:104FE00013F4805F05D1236C43F00103236400E0D8
:104FF000002070BD0020FCE70368D86C70470000FB
:1050000030B482B00022019290F83C20012A00F0D6
:10501000B6800346012280F83C200A68092A40D95C
:105020000468E06892B202EB42021E3A4FF0070CAD
:105030000CFA02F220EA0202E2601C68E0680A88C8
:1050400002EB42021E3A8D6805FA02F20243E26068
:105050004A68062A3CD81C68606B02EB8202053A5B
:105060004FF01F0C0CFA02F220EA020262631C6885
:10507000606B4A6802EB8202053AB1F800C00CFA94
:1050800002F20243626318683E4A904250D01868A8
:105090003C4A904255D0002083F83C0002B030BC1E
:1050A00070470468206992B202EB42024FF0070C8D
:1050B0000CFA02F220EA020222611C6820690A88C6
:1050C00002EB42028D6805FA02F202432261BFE759
:1050D0000C2A16D81D68286B02EB8202233A1F2483
:1050E00004FA02F220EA02022A631D68286B4A6869
:1050F00002EB8202233A0C8804FA02F202432A638A
:10510000C1E71D68E86A02EB8202413A1F2404FAF3
:1051100002F220EA0202EA621D68E86A4A6802EBCB
:105120008202413A0C8804FA02F20243EA62AAE7D8
:105130000A68122AABD11448426842F480024260E5
:10514000A5E70A68103A012AA5D80F48426842F438
:10515000000242600A68102A9DD10C4A12680C496C
:10516000A1FB0212920C02EB82025200019202E0B9
:10517000019A013A0192019A002AF9D18BE70220A3
:105180008CE700BF00200140002301400000002008
:1051900083DE1B43002800F0A18038B5044690F858
:1051A0002030D3B12268136843F001031360FDF788
:1051B000B9FA054623685A6812F0010F10D1FDF7BD
:1051C000B1FA401B0A28F5D9636A43F400336362DD
:1051D000052384F82030012038BD10F0B3FAE1E750
:1051E0001A6822F002021A60FDF79CFA054623684D
:1051F0005A6812F0020F0DD0FDF794FA401B0A28EE
:10520000F5D9636A43F400336362052384F82030E0
:105210000120E1E7227E012A3DD01A6822F08002B7
:105220001A60637E012B3BD02268136823F0400391
:105230001360A37E012B39D02268136823F020036A
:105240001360E37E012B37D02268136843F010030C
:105250001360237F012B35D02268136823F00803E5
:105260001360637F012B33D02268136823F004039B
:105270001360A368E268134322691343626913430E
:105280006268013A21681343CB6100206062012308
:1052900084F82030A0E71A6842F080021A60C0E764
:1052A0002268136843F040031360C2E72268136862
:1052B00043F020031360C4E72268136823F010034F
:1052C0001360C6E72268136843F008031360C8E759
:1052D0002268136843F004031360CAE70120704793
:1052E0007047704770477047704770477047704706
:1052F000704770477047704770472DE9F84F054673
:1053000003685C69D3F804809F68D3F80CA0D3F8D5
:105310001090D3F818B014F001063BD017F0010636
:1053200016D001229A6017F0020F08D117F0040F6F
:105330000CD117F0080606D04FF4805608E0FFF7AE
:10534000CFFF002604E0FFF7CEFF01E04FF4006638
:1053500017F4807F0DD02B684FF480729A6017F499
:10536000007F40F0968017F4806F00F0968046F43E
:10537000005617F4803F0DD02B684FF480329A60AE
:1053800017F4003F40F0938017F4802F00F09380D3
:1053900046F4004614F0080F07D01AF0100F04D09E
:1053A00046F400762B681022DA6014F0040F03D064
:1053B0001AF0080F40F0898014F0020F05D02B6816
:1053C000DB6813F0030F40F0878014F0400F07D024
:1053D00019F0100F04D046F480662B6810221A6171
:1053E00014F0200F02D019F0080F79D114F0100F2B
:1053F00004D02B681B6913F0030F78D114F4003F1D
:1054000002D018F0100F76D114F4803F02D018F0BB
:10541000080F77D114F4004F37D018F0040F31D0B3
:1054200014F4807F04D01BF0010F01D046F0010678
:1054300014F4007F04D01BF0020F01D046F00206E6
:1054400014F4806F04D01BF0040F01D046F0040662
:1054500014F4006F16D01BF0700B13D0BBF1400F8B
:1054600066D056D8BBF1200F5CD0BBF1300F5CD0BA
:10547000BBF1100F01D146F008062A68936923F0AA
:10548000700393612B6804225A60002E56D1BDE848
:10549000F88F2846FFF725FF6BE717F4006F02D05F
:1054A00046F4804665E72846FFF71EFF61E7284679
:1054B000FFF718FF6EE717F4002F02D046F480368E
:1054C00068E72846FFF711FF64E72B680822DA60D7
:1054D0002846FFF70CFF6FE72846FFF707FF74E742
:1054E0002B6808221A612846FFF703FF7EE728464B
:1054F000FFF7FEFE82E72B6810225A602846FFF76E
:10550000F9FE81E72B6808225A602846FFF7F3FE70
:1055100080E7BBF1500F0ED0BBF1600FADD146F468
:105520008076AAE746F01006A7E746F02006A4E733
:1055300046F04006A1E746F080069EE76B6A3343DB
:105540006B622846FFF7D8FEA1E770B110B504469C
:10555000037933B1022323710020206101232371D9
:1055600010BD437110F034F9F4E70120704788B39F
:1055700003464279012A2FD010B401224271022041
:1055800018711C68206801F0100C02FA0CF202433A
:10559000226089B919680A6802F03C023C2A06D0E8
:1055A00001221A71002058715DF8044B70474A6857
:1055B00042F001024A60F3E71868016801F47011D3
:1055C0003C2202FA0CF29142EAD1426842F0020215
:1055D0004260E5E7012070470220704710B483B0B5
:1055E0000024019490B10068019051B901990A44D6
:1055F00008320192019A1360002003B05DF8044B59
:10560000704701990A4414320192F3E70120F4E74C
:1056100048B3844649B34379012B28D010B54FF0E5
:10562000010E80F805E0022303710468206802F08F
:10563000100240F6FE73934020EA03000B684968AD
:105640000B43934003432360DCF800000368C02150
:1056500001FA02F223EA020303608CF804E000205E
:105660008CF8050010BD0120704701207047022012
:10567000704703685A6912F4806F01D100207047A7
:105680006FF480625A6100230363202280F83D207A
:1056900080F83E30026C42F00402026480F83C3034
:1056A000012070472DE9F04106460C461746984602
:1056B0003BE0FDF737F8069BC01A404502D8B8F129
:1056C000000F32D1012D18D033689B6924EA0303FF
:1056D0009BB2B3FA83F35B099F4226D10023336365
:1056E000202286F83D2086F83E30326C42F02002BF
:1056F000326486F83C30012027E033685B6924EA95
:1057000003039BB2B3FA83F35B09E5E733685B6994
:1057100024EA030C1FFA8CFCBCFA8CFC4FEA5C1CDC
:10572000674511D1B8F1FF3FC3D1C4F30745012D3F
:10573000ECD033689B6924EA030C1FFA8CFCBCFA9A
:105740008CFC4FEA5C1CEBE70020BDE8F0812DE902
:10575000F84305460E469046994653E01A6842F4CF
:1057600000721A602B686FF480625A6100232B6309
:10577000202285F83D2085F83E302A6C42F0040254
:105780002A6485F83C3001204AE0FCF7CBFFA0EB0F
:105790000900404502D8B8F1000F33D1012F17D0CE
:1057A0002B689B6926EA03039BB2003B18BF0123C9
:1057B00043B300232B63202285F83D2085F83E303B
:1057C0002A6C42F020022A6485F83C30012027E050
:1057D0002B685B6926EA03039BB2003B18BF0123D9
:1057E000E6E72B689C6926EA0404A4B2003C18BFD3
:1057F0000124A4B12B685A6912F4806FAED1B8F1BC
:10580000FF3FC2D1C6F30747012FEAD12B685C697D
:1058100026EA0404A4B2003C18BF0124E9E70020F2
:10582000BDE8F883F0B583B004460D4616461F4622
:10583000C36A082B0DD0012B0BD013F5803F08D085
:10584000036B122B0AD10268136843F48073136050
:1058500004E02268136843F48073136000973346B2
:1058600000224FF001112046FFF71CFF80B9236989
:10587000B3F5804F16D1236805F0FE051D613B4648
:10588000324613492046FFF762FFF8B903B0F0BD76
:1058900023681B6813F4807F02D04FF400732364E5
:1058A0000320F3E7EB11226803F0060343F0F00353
:1058B00013613B46324607492046FFF748FF18B9B7
:1058C0002368EDB21D61DAE70120DFE70120DDE7A3
:1058D00002000100080001002DE9F04184B00446F7
:1058E0000D4616461F46C26A01680B6843F4806382
:1058F0000B60082A0DD0012A0BD012F5803F08D08A
:10590000036B112B0AD10268136843F48073136090
:1059100004E02268136843F48073136000973346F1
:1059200000224FF001112046FFF7BCFE98B9236911
:10593000B3F5804F19D1236845F00105EDB21D6123
:105940003B4632462A492046FFF701FF00284CD14A
:1059500004B0BDE8F08123681B6813F4807F02D097
:105960004FF4007323640320F2E74FEAE51808F0D0
:105970000608236848F0F0021A613B4632461D498A
:105980002046FFF7E4FE08B10120E1E72368EDB20D
:105990001D613B46324616492046FFF7D8FE08B146
:1059A0000120D5E700220392236859690391996980
:1059B00003910399196841F4807119600097334687
:1059C0004FF001112046FFF76DFE20B9226848F024
:1059D000F1031361B4E723681B6813F4807F02D0DE
:1059E0004FF4007323640320B2E70120B0E700BF47
:1059F000020001000800010070B504460D4616467D
:105A000023685B6913F0800F21D12046FFF731FE38
:105A1000F8B9B5F1FF3FF3D0FCF784FE801BA84234
:105A200001D8002DECD123685B6913F0800FE7D11A
:105A300000232363202284F83D2084F83E30226C2A
:105A400042F02002226484F83C30012000E0002073
:105A500070BD0120FCE700002DE9F04385B004464D
:105A60000D4691461F46DDF830800D9E036819688B
:105A700041F4807119600096434600224FF00111F5
:105A8000FFF710FE60B9236805F0FE051D6133467F
:105A9000424626492046FFF75AFE68B1012008E039
:105AA00023681B6813F4807F02D04FF400732364D3
:105AB000032005B0BDE8F0830023039323685A69EF
:105AC00003929B690393039B324641462046FFF7AE
:105AD00093FF30B9012F0FD123685FFA89F61E6159
